{
  "contractName": "Exchange",
  "abi": [
    {
      "inputs": [],
      "stateMutability": "nonpayable",
      "type": "constructor"
    },
    {
      "inputs": [
        {
          "internalType": "contract Token",
          "name": "",
          "type": "address"
        }
      ],
      "name": "reserves",
      "outputs": [
        {
          "internalType": "contract Reserve",
          "name": "",
          "type": "address"
        }
      ],
      "stateMutability": "view",
      "type": "function"
    },
    {
      "inputs": [
        {
          "internalType": "uint256",
          "name": "amount",
          "type": "uint256"
        },
        {
          "internalType": "uint256",
          "name": "buyRate",
          "type": "uint256"
        }
      ],
      "name": "convertEthToTokenByRate",
      "outputs": [
        {
          "internalType": "uint256",
          "name": "",
          "type": "uint256"
        }
      ],
      "stateMutability": "view",
      "type": "function"
    },
    {
      "inputs": [
        {
          "internalType": "uint256",
          "name": "amount",
          "type": "uint256"
        },
        {
          "internalType": "uint256",
          "name": "sellRate",
          "type": "uint256"
        }
      ],
      "name": "convertTokenToEthByRate",
      "outputs": [
        {
          "internalType": "uint256",
          "name": "",
          "type": "uint256"
        }
      ],
      "stateMutability": "view",
      "type": "function"
    },
    {
      "inputs": [
        {
          "internalType": "contract Reserve",
          "name": "reserve",
          "type": "address"
        },
        {
          "internalType": "contract Token",
          "name": "token",
          "type": "address"
        },
        {
          "internalType": "bool",
          "name": "isAdd",
          "type": "bool"
        }
      ],
      "name": "modifyReserveMap",
      "outputs": [],
      "stateMutability": "nonpayable",
      "type": "function"
    },
    {
      "inputs": [
        {
          "internalType": "contract Token",
          "name": "srcToken",
          "type": "address"
        },
        {
          "internalType": "contract Token",
          "name": "destToken",
          "type": "address"
        }
      ],
      "name": "getExchangeRate",
      "outputs": [
        {
          "internalType": "uint256",
          "name": "",
          "type": "uint256"
        }
      ],
      "stateMutability": "view",
      "type": "function"
    },
    {
      "inputs": [
        {
          "internalType": "contract Token",
          "name": "srcToken",
          "type": "address"
        },
        {
          "internalType": "contract Token",
          "name": "destToken",
          "type": "address"
        },
        {
          "internalType": "uint256",
          "name": "srcAmount",
          "type": "uint256"
        }
      ],
      "name": "exchangeBetweenTokens",
      "outputs": [],
      "stateMutability": "payable",
      "type": "function"
    },
    {
      "inputs": [
        {
          "internalType": "contract Token",
          "name": "token",
          "type": "address"
        },
        {
          "internalType": "uint256",
          "name": "amount",
          "type": "uint256"
        }
      ],
      "name": "exchangeEthToToken",
      "outputs": [],
      "stateMutability": "payable",
      "type": "function"
    },
    {
      "inputs": [
        {
          "internalType": "contract Token",
          "name": "token",
          "type": "address"
        },
        {
          "internalType": "uint256",
          "name": "amount",
          "type": "uint256"
        }
      ],
      "name": "exchangeTokenToEth",
      "outputs": [],
      "stateMutability": "payable",
      "type": "function"
    }
  ],
  "bytecode": "0x608060405234801561001057600080fd5b50336000806101000a81548173ffffffffffffffffffffffffffffffffffffffff021916908373ffffffffffffffffffffffffffffffffffffffff1602179055506001600260006101000a81548160ff02191690831515021790555061119a8061007b6000396000f3fe60806040526004361061007b5760003560e01c8063baaa61be1161004e578063baaa61be14610212578063d66bd52414610297578063df0e81f814610312578063ee302988146103605761007b565b8063050e91b5146100805780631f08d096146100ce57806365de1d7114610127578063912a049f14610195575b600080fd5b6100cc6004803603604081101561009657600080fd5b81019080803573ffffffffffffffffffffffffffffffffffffffff169060200190929190803590602001909291905050506103b9565b005b3480156100da57600080fd5b50610111600480360360408110156100f157600080fd5b810190808035906020019092919080359060200190929190505050610645565b6040518082815260200191505060405180910390f35b6101936004803603606081101561013d57600080fd5b81019080803573ffffffffffffffffffffffffffffffffffffffff169060200190929190803573ffffffffffffffffffffffffffffffffffffffff16906020019092919080359060200190929190505050610663565b005b3480156101a157600080fd5b50610210600480360360608110156101b857600080fd5b81019080803573ffffffffffffffffffffffffffffffffffffffff169060200190929190803573ffffffffffffffffffffffffffffffffffffffff169060200190929190803515159060200190929190505050610ac1565b005b34801561021e57600080fd5b506102816004803603604081101561023557600080fd5b81019080803573ffffffffffffffffffffffffffffffffffffffff169060200190929190803573ffffffffffffffffffffffffffffffffffffffff169060200190929190505050610c0a565b6040518082815260200191505060405180910390f35b3480156102a357600080fd5b506102e6600480360360208110156102ba57600080fd5b81019080803573ffffffffffffffffffffffffffffffffffffffff169060200190929190505050610df8565b604051808273ffffffffffffffffffffffffffffffffffffffff16815260200191505060405180910390f35b61035e6004803603604081101561032857600080fd5b81019080803573ffffffffffffffffffffffffffffffffffffffff16906020019092919080359060200190929190505050610e2b565b005b34801561036c57600080fd5b506103a36004803603604081101561038357600080fd5b8101908080359060200190929190803590602001909291905050506110ab565b6040518082815260200191505060405180910390f35b60008111610412576040517f08c379a00000000000000000000000000000000000000000000000000000000081526004018080602001828103825260338152602001806111326033913960400191505060405180910390fd5b80341461041e57600080fd5b600160008373ffffffffffffffffffffffffffffffffffffffff1673ffffffffffffffffffffffffffffffffffffffff16815260200190815260200160002060009054906101000a900473ffffffffffffffffffffffffffffffffffffffff1673ffffffffffffffffffffffffffffffffffffffff1663874fc5f86001836040518363ffffffff1660e01b815260040180831515815260200182815260200192505050600060405180830381600087803b1580156104db57600080fd5b505af11580156104ef573d6000803e3d6000fd5b505050508173ffffffffffffffffffffffffffffffffffffffff1663a9059cbb338473ffffffffffffffffffffffffffffffffffffffff166370a08231306040518263ffffffff1660e01b8152600401808273ffffffffffffffffffffffffffffffffffffffff16815260200191505060206040518083038186803b15801561057757600080fd5b505afa15801561058b573d6000803e3d6000fd5b505050506040513d60208110156105a157600080fd5b81019080805190602001909291905050506040518363ffffffff1660e01b8152600401808373ffffffffffffffffffffffffffffffffffffffff16815260200182815260200192505050602060405180830381600087803b15801561060557600080fd5b505af1158015610619573d6000803e3d6000fd5b505050506040513d602081101561062f57600080fd5b8101908080519060200190929190505050505050565b6000670de0b6b3a76400008284028161065a57fe5b04905092915050565b600081116106bc576040517f08c379a00000000000000000000000000000000000000000000000000000000081526004018080602001828103825260358152602001806110fd6035913960400191505060405180910390fd5b8034146106c857600080fd5b60006107c182600160008773ffffffffffffffffffffffffffffffffffffffff1673ffffffffffffffffffffffffffffffffffffffff16815260200190815260200160002060009054906101000a900473ffffffffffffffffffffffffffffffffffffffff1673ffffffffffffffffffffffffffffffffffffffff16630e587c4060016040518263ffffffff1660e01b815260040180821515815260200191505060206040518083038186803b15801561078157600080fd5b505afa158015610795573d6000803e3d6000fd5b505050506040513d60208110156107ab57600080fd5b8101908080519060200190929190505050610645565b9050600160008573ffffffffffffffffffffffffffffffffffffffff1673ffffffffffffffffffffffffffffffffffffffff16815260200190815260200160002060009054906101000a900473ffffffffffffffffffffffffffffffffffffffff1673ffffffffffffffffffffffffffffffffffffffff1663874fc5f86000846040518363ffffffff1660e01b815260040180831515815260200182815260200192505050600060405180830381600087803b15801561088057600080fd5b505af1158015610894573d6000803e3d6000fd5b50505050600160008473ffffffffffffffffffffffffffffffffffffffff1673ffffffffffffffffffffffffffffffffffffffff16815260200190815260200160002060009054906101000a900473ffffffffffffffffffffffffffffffffffffffff1673ffffffffffffffffffffffffffffffffffffffff1663874fc5f86001836040518363ffffffff1660e01b815260040180831515815260200182815260200192505050600060405180830381600087803b15801561095557600080fd5b505af1158015610969573d6000803e3d6000fd5b505050508273ffffffffffffffffffffffffffffffffffffffff1663a9059cbb338573ffffffffffffffffffffffffffffffffffffffff166370a08231306040518263ffffffff1660e01b8152600401808273ffffffffffffffffffffffffffffffffffffffff16815260200191505060206040518083038186803b1580156109f157600080fd5b505afa158015610a05573d6000803e3d6000fd5b505050506040513d6020811015610a1b57600080fd5b81019080805190602001909291905050506040518363ffffffff1660e01b8152600401808373ffffffffffffffffffffffffffffffffffffffff16815260200182815260200192505050602060405180830381600087803b158015610a7f57600080fd5b505af1158015610a93573d6000803e3d6000fd5b505050506040513d6020811015610aa957600080fd5b81019080805190602001909291905050505050505050565b60008054906101000a900473ffffffffffffffffffffffffffffffffffffffff1673ffffffffffffffffffffffffffffffffffffffff163373ffffffffffffffffffffffffffffffffffffffff1614610b1957600080fd5b8015610ba25782600160008473ffffffffffffffffffffffffffffffffffffffff1673ffffffffffffffffffffffffffffffffffffffff16815260200190815260200160002060006101000a81548173ffffffffffffffffffffffffffffffffffffffff021916908373ffffffffffffffffffffffffffffffffffffffff160217905550610c05565b600160008373ffffffffffffffffffffffffffffffffffffffff1673ffffffffffffffffffffffffffffffffffffffff16815260200190815260200160002060006101000a81549073ffffffffffffffffffffffffffffffffffffffff02191690555b505050565b6000600160008473ffffffffffffffffffffffffffffffffffffffff1673ffffffffffffffffffffffffffffffffffffffff16815260200190815260200160002060009054906101000a900473ffffffffffffffffffffffffffffffffffffffff1673ffffffffffffffffffffffffffffffffffffffff16630e587c4060006040518263ffffffff1660e01b815260040180821515815260200191505060206040518083038186803b158015610cbf57600080fd5b505afa158015610cd3573d6000803e3d6000fd5b505050506040513d6020811015610ce957600080fd5b8101908080519060200190929190505050600160008473ffffffffffffffffffffffffffffffffffffffff1673ffffffffffffffffffffffffffffffffffffffff16815260200190815260200160002060009054906101000a900473ffffffffffffffffffffffffffffffffffffffff1673ffffffffffffffffffffffffffffffffffffffff16630e587c4060016040518263ffffffff1660e01b815260040180821515815260200191505060206040518083038186803b158015610dad57600080fd5b505afa158015610dc1573d6000803e3d6000fd5b505050506040513d6020811015610dd757600080fd5b810190808051906020019092919050505081610def57fe5b04905092915050565b60016020528060005260406000206000915054906101000a900473ffffffffffffffffffffffffffffffffffffffff1681565b60008111610e84576040517f08c379a00000000000000000000000000000000000000000000000000000000081526004018080602001828103825260338152602001806110ca6033913960400191505060405180910390fd5b600160008373ffffffffffffffffffffffffffffffffffffffff1673ffffffffffffffffffffffffffffffffffffffff16815260200190815260200160002060009054906101000a900473ffffffffffffffffffffffffffffffffffffffff1673ffffffffffffffffffffffffffffffffffffffff1663874fc5f86000836040518363ffffffff1660e01b815260040180831515815260200182815260200192505050600060405180830381600087803b158015610f4157600080fd5b505af1158015610f55573d6000803e3d6000fd5b505050508173ffffffffffffffffffffffffffffffffffffffff1663a9059cbb338473ffffffffffffffffffffffffffffffffffffffff166370a08231306040518263ffffffff1660e01b8152600401808273ffffffffffffffffffffffffffffffffffffffff16815260200191505060206040518083038186803b158015610fdd57600080fd5b505afa158015610ff1573d6000803e3d6000fd5b505050506040513d602081101561100757600080fd5b81019080805190602001909291905050506040518363ffffffff1660e01b8152600401808373ffffffffffffffffffffffffffffffffffffffff16815260200182815260200192505050602060405180830381600087803b15801561106b57600080fd5b505af115801561107f573d6000803e3d6000fd5b505050506040513d602081101561109557600080fd5b8101908080519060200190929190505050505050565b600081670de0b6b3a76400008402816110c057fe5b0490509291505056fe45786368616e676520546f6b656e202d3e204574683a20416d6f756e74206d75737420626520626967676572207468616e203045786368616e676520546f6b656e202d3e20546f6b656e3a20416d6f756e74206d75737420626520626967676572207468616e203045786368616e676520457468202d3e20546f6b656e3a20416d6f756e74206d75737420626520626967676572207468616e2030a2646970667358221220cf4bbb6dddb8ef4b1c22d96aeffb319203f57377f26757566cd928f1d5f1f6d464736f6c63430007000033",
  "immutableReferences": {},
  "source": "pragma solidity <0.8.0;\nimport \"./Token.sol\";\nimport \"./Reserve.sol\";\n\ncontract Exchange {\n    using SafeMath for uint256;\n    address _owner;\n    mapping (Token => Reserve) public reserves;\n    bool _tradeEnabled;\n\n    constructor() public {\n        _owner = msg.sender;\n        _tradeEnabled = true;\n    }\n\n    modifier onlyOwner {\n        require(msg.sender == _owner);\n        _;\n    }\n\n    function convertEthToTokenByRate(uint256 amount, uint256 buyRate) public view returns (uint256) {\n        return amount * buyRate / 1e18;\n    }\n\n    // convert from token to eth by sell rate\n    // amount * ether / sell rate\n    function convertTokenToEthByRate(uint256 amount, uint256 sellRate) public view returns (uint256) {\n        return amount * 1e18 / sellRate;\n    }\n\n    // add/remove reserve\n    function modifyReserveMap(Reserve reserve, Token token, bool isAdd) public  onlyOwner {\n        if (isAdd) {\n            reserves[token] = reserve;\n        } else {\n            delete reserves[token];\n        }\n    }\n\n    // get Exchange Rate\n    function getExchangeRate(Token srcToken, Token destToken) public view returns (uint256) {\n        // srcToken -> ETH -> destToken\n        // rate = buyrate dest / sellrate src\n        return reserves[destToken].getExchangeRate(true) / reserves[srcToken].getExchangeRate(false);\n    }\n\n    function exchangeBetweenTokens(Token srcToken, Token destToken, uint256 srcAmount) public payable {\n        require(srcAmount > 0, \"Exchange Token -> Token: Amount must be bigger than 0\");\n        require(msg.value == srcAmount);\n        // dest amount  = src * buy rate A / 1e18\n        uint256 destAmount = convertEthToTokenByRate(srcAmount, reserves[srcToken].getExchangeRate(true));\n        // sell token a -> eth\n        // buy eth -> token b\n        reserves[srcToken].exchange(false, srcAmount);\n        reserves[destToken].exchange(true, destAmount);\n\n        destToken.transfer(msg.sender, destToken.balanceOf(address(this)));\n\n    }\n\n    function exchangeEthToToken(Token token, uint256 amount) public payable {\n        require(amount > 0, \"Exchange Eth -> Token: Amount must be bigger than 0\");\n        require(msg.value == amount);\n\n        reserves[token].exchange(true, amount);\n        token.transfer(msg.sender, token.balanceOf(address(this)));\n    }\n\n    function exchangeTokenToEth(Token token, uint256 amount) public payable {\n        require(amount > 0, \"Exchange Token -> Eth: Amount must be bigger than 0\");\n\n        reserves[token].exchange(false, amount);\n        token.transfer(msg.sender, token.balanceOf(address(this)));\n    }\n    \n}\n",
  "sourcePath": "/Users/nhanncv/Desktop/Summer2020/Blockchain/Capstone/contracts/Exchange.sol",
  "compiler": {
    "name": "solc",
    "version": "0.7.0+commit.9e61f92b.Emscripten.clang"
  },
  "schemaVersion": "3.2.0",
  "updatedAt": "2020-12-01T03:52:34.136Z",
  "networkType": "ethereum",
  "devdoc": {
    "kind": "dev",
    "methods": {},
    "version": 1
  },
  "userdoc": {
    "kind": "user",
    "methods": {},
    "version": 1
  }
}