{
  "contractName": "Exchange",
  "abi": [
    {
      "inputs": [],
      "stateMutability": "nonpayable",
      "type": "constructor"
    },
    {
      "inputs": [
        {
          "internalType": "contract Token",
          "name": "",
          "type": "address"
        }
      ],
      "name": "reserves",
      "outputs": [
        {
          "internalType": "contract Reserve",
          "name": "",
          "type": "address"
        }
      ],
      "stateMutability": "view",
      "type": "function"
    },
    {
      "inputs": [
        {
          "internalType": "uint256",
          "name": "amount",
          "type": "uint256"
        },
        {
          "internalType": "uint256",
          "name": "buyRate",
          "type": "uint256"
        }
      ],
      "name": "convertEthToTokenByRate",
      "outputs": [
        {
          "internalType": "uint256",
          "name": "",
          "type": "uint256"
        }
      ],
      "stateMutability": "pure",
      "type": "function"
    },
    {
      "inputs": [
        {
          "internalType": "uint256",
          "name": "amount",
          "type": "uint256"
        },
        {
          "internalType": "uint256",
          "name": "sellRate",
          "type": "uint256"
        }
      ],
      "name": "convertTokenToEthByRate",
      "outputs": [
        {
          "internalType": "uint256",
          "name": "",
          "type": "uint256"
        }
      ],
      "stateMutability": "pure",
      "type": "function"
    },
    {
      "inputs": [
        {
          "internalType": "address",
          "name": "reserveAddr",
          "type": "address"
        },
        {
          "internalType": "bool",
          "name": "isAdd",
          "type": "bool"
        }
      ],
      "name": "modifyReserveMap",
      "outputs": [],
      "stateMutability": "nonpayable",
      "type": "function"
    },
    {
      "inputs": [
        {
          "internalType": "contract Token",
          "name": "srcToken",
          "type": "address"
        },
        {
          "internalType": "contract Token",
          "name": "destToken",
          "type": "address"
        }
      ],
      "name": "getExchangeRate",
      "outputs": [
        {
          "internalType": "uint256[2]",
          "name": "",
          "type": "uint256[2]"
        }
      ],
      "stateMutability": "view",
      "type": "function"
    },
    {
      "inputs": [
        {
          "internalType": "contract Token",
          "name": "srcToken",
          "type": "address"
        },
        {
          "internalType": "contract Token",
          "name": "destToken",
          "type": "address"
        },
        {
          "internalType": "uint256",
          "name": "srcAmount",
          "type": "uint256"
        }
      ],
      "name": "exchangeBetweenTokens",
      "outputs": [],
      "stateMutability": "payable",
      "type": "function"
    },
    {
      "inputs": [
        {
          "internalType": "contract Token",
          "name": "token",
          "type": "address"
        },
        {
          "internalType": "uint256",
          "name": "amount",
          "type": "uint256"
        }
      ],
      "name": "exchangeEthToToken",
      "outputs": [],
      "stateMutability": "payable",
      "type": "function"
    },
    {
      "inputs": [
        {
          "internalType": "contract Token",
          "name": "token",
          "type": "address"
        },
        {
          "internalType": "uint256",
          "name": "amount",
          "type": "uint256"
        }
      ],
      "name": "exchangeTokenToEth",
      "outputs": [],
      "stateMutability": "payable",
      "type": "function"
    }
  ],
  "bytecode": "0x608060405234801561001057600080fd5b50336000806101000a81548173ffffffffffffffffffffffffffffffffffffffff021916908373ffffffffffffffffffffffffffffffffffffffff1602179055506001600260006101000a81548160ff0219169083151502179055506112f18061007b6000396000f3fe60806040526004361061007b5760003560e01c8063c82aeef71161004e578063c82aeef714610242578063d66bd5241461029f578063df0e81f81461031a578063ee302988146103685761007b565b8063050e91b5146100805780631f08d096146100ce57806365de1d7114610127578063baaa61be14610195575b600080fd5b6100cc6004803603604081101561009657600080fd5b81019080803573ffffffffffffffffffffffffffffffffffffffff169060200190929190803590602001909291905050506103c1565b005b3480156100da57600080fd5b50610111600480360360408110156100f157600080fd5b810190808035906020019092919080359060200190929190505050610641565b6040518082815260200191505060405180910390f35b6101936004803603606081101561013d57600080fd5b81019080803573ffffffffffffffffffffffffffffffffffffffff169060200190929190803573ffffffffffffffffffffffffffffffffffffffff1690602001909291908035906020019092919050505061065f565b005b3480156101a157600080fd5b50610204600480360360408110156101b857600080fd5b81019080803573ffffffffffffffffffffffffffffffffffffffff169060200190929190803573ffffffffffffffffffffffffffffffffffffffff169060200190929190505050610ab1565b6040518082600260200280838360005b8381101561022f578082015181840152602081019050610214565b5050505090500191505060405180910390f35b34801561024e57600080fd5b5061029d6004803603604081101561026557600080fd5b81019080803573ffffffffffffffffffffffffffffffffffffffff169060200190929190803515159060200190929190505050610cdf565b005b3480156102ab57600080fd5b506102ee600480360360208110156102c257600080fd5b81019080803573ffffffffffffffffffffffffffffffffffffffff169060200190929190505050610f2d565b604051808273ffffffffffffffffffffffffffffffffffffffff16815260200191505060405180910390f35b6103666004803603604081101561033057600080fd5b81019080803573ffffffffffffffffffffffffffffffffffffffff16906020019092919080359060200190929190505050610f60565b005b34801561037457600080fd5b506103ab6004803603604081101561038b57600080fd5b8101908080359060200190929190803590602001909291905050506111e0565b6040518082815260200191505060405180910390f35b6000811161041a576040517f08c379a00000000000000000000000000000000000000000000000000000000081526004018080602001828103825260338152602001806112896033913960400191505060405180910390fd5b600160008373ffffffffffffffffffffffffffffffffffffffff1673ffffffffffffffffffffffffffffffffffffffff16815260200190815260200160002060009054906101000a900473ffffffffffffffffffffffffffffffffffffffff1673ffffffffffffffffffffffffffffffffffffffff1663874fc5f86001836040518363ffffffff1660e01b815260040180831515815260200182815260200192505050600060405180830381600087803b1580156104d757600080fd5b505af11580156104eb573d6000803e3d6000fd5b505050508173ffffffffffffffffffffffffffffffffffffffff1663a9059cbb338473ffffffffffffffffffffffffffffffffffffffff166370a08231306040518263ffffffff1660e01b8152600401808273ffffffffffffffffffffffffffffffffffffffff16815260200191505060206040518083038186803b15801561057357600080fd5b505afa158015610587573d6000803e3d6000fd5b505050506040513d602081101561059d57600080fd5b81019080805190602001909291905050506040518363ffffffff1660e01b8152600401808373ffffffffffffffffffffffffffffffffffffffff16815260200182815260200192505050602060405180830381600087803b15801561060157600080fd5b505af1158015610615573d6000803e3d6000fd5b505050506040513d602081101561062b57600080fd5b8101908080519060200190929190505050505050565b6000670de0b6b3a76400008284028161065657fe5b04905092915050565b600081116106b8576040517f08c379a00000000000000000000000000000000000000000000000000000000081526004018080602001828103825260358152602001806112546035913960400191505060405180910390fd5b60006107b182600160008773ffffffffffffffffffffffffffffffffffffffff1673ffffffffffffffffffffffffffffffffffffffff16815260200190815260200160002060009054906101000a900473ffffffffffffffffffffffffffffffffffffffff1673ffffffffffffffffffffffffffffffffffffffff16630e587c4060016040518263ffffffff1660e01b815260040180821515815260200191505060206040518083038186803b15801561077157600080fd5b505afa158015610785573d6000803e3d6000fd5b505050506040513d602081101561079b57600080fd5b8101908080519060200190929190505050610641565b9050600160008573ffffffffffffffffffffffffffffffffffffffff1673ffffffffffffffffffffffffffffffffffffffff16815260200190815260200160002060009054906101000a900473ffffffffffffffffffffffffffffffffffffffff1673ffffffffffffffffffffffffffffffffffffffff1663874fc5f86000846040518363ffffffff1660e01b815260040180831515815260200182815260200192505050600060405180830381600087803b15801561087057600080fd5b505af1158015610884573d6000803e3d6000fd5b50505050600160008473ffffffffffffffffffffffffffffffffffffffff1673ffffffffffffffffffffffffffffffffffffffff16815260200190815260200160002060009054906101000a900473ffffffffffffffffffffffffffffffffffffffff1673ffffffffffffffffffffffffffffffffffffffff1663874fc5f86001836040518363ffffffff1660e01b815260040180831515815260200182815260200192505050600060405180830381600087803b15801561094557600080fd5b505af1158015610959573d6000803e3d6000fd5b505050508273ffffffffffffffffffffffffffffffffffffffff1663a9059cbb338573ffffffffffffffffffffffffffffffffffffffff166370a08231306040518263ffffffff1660e01b8152600401808273ffffffffffffffffffffffffffffffffffffffff16815260200191505060206040518083038186803b1580156109e157600080fd5b505afa1580156109f5573d6000803e3d6000fd5b505050506040513d6020811015610a0b57600080fd5b81019080805190602001909291905050506040518363ffffffff1660e01b8152600401808373ffffffffffffffffffffffffffffffffffffffff16815260200182815260200192505050602060405180830381600087803b158015610a6f57600080fd5b505af1158015610a83573d6000803e3d6000fd5b505050506040513d6020811015610a9957600080fd5b81019080805190602001909291905050505050505050565b610ab96111fe565b6000600160008473ffffffffffffffffffffffffffffffffffffffff1673ffffffffffffffffffffffffffffffffffffffff16815260200190815260200160002060009054906101000a900473ffffffffffffffffffffffffffffffffffffffff1673ffffffffffffffffffffffffffffffffffffffff16630e587c4060016040518263ffffffff1660e01b815260040180821515815260200191505060206040518083038186803b158015610b6e57600080fd5b505afa158015610b82573d6000803e3d6000fd5b505050506040513d6020811015610b9857600080fd5b810190808051906020019092919050505090506000600160008673ffffffffffffffffffffffffffffffffffffffff1673ffffffffffffffffffffffffffffffffffffffff16815260200190815260200160002060009054906101000a900473ffffffffffffffffffffffffffffffffffffffff1673ffffffffffffffffffffffffffffffffffffffff16630e587c4060006040518263ffffffff1660e01b815260040180821515815260200191505060206040518083038186803b158015610c6057600080fd5b505afa158015610c74573d6000803e3d6000fd5b505050506040513d6020811015610c8a57600080fd5b81019080805190602001909291905050509050610ca56111fe565b8281600060028110610cb357fe5b6020020181815250508181600160028110610cca57fe5b60200201818152505080935050505092915050565b60008054906101000a900473ffffffffffffffffffffffffffffffffffffffff1673ffffffffffffffffffffffffffffffffffffffff163373ffffffffffffffffffffffffffffffffffffffff1614610d3757600080fd5b60008290508115610e455780600160008373ffffffffffffffffffffffffffffffffffffffff1663ecd0c0c36040518163ffffffff1660e01b815260040160206040518083038186803b158015610d8d57600080fd5b505afa158015610da1573d6000803e3d6000fd5b505050506040513d6020811015610db757600080fd5b810190808051906020019092919050505073ffffffffffffffffffffffffffffffffffffffff1673ffffffffffffffffffffffffffffffffffffffff16815260200190815260200160002060006101000a81548173ffffffffffffffffffffffffffffffffffffffff021916908373ffffffffffffffffffffffffffffffffffffffff160217905550610f28565b600160008273ffffffffffffffffffffffffffffffffffffffff1663ecd0c0c36040518163ffffffff1660e01b815260040160206040518083038186803b158015610e8f57600080fd5b505afa158015610ea3573d6000803e3d6000fd5b505050506040513d6020811015610eb957600080fd5b810190808051906020019092919050505073ffffffffffffffffffffffffffffffffffffffff1673ffffffffffffffffffffffffffffffffffffffff16815260200190815260200160002060006101000a81549073ffffffffffffffffffffffffffffffffffffffff02191690555b505050565b60016020528060005260406000206000915054906101000a900473ffffffffffffffffffffffffffffffffffffffff1681565b60008111610fb9576040517f08c379a00000000000000000000000000000000000000000000000000000000081526004018080602001828103825260338152602001806112216033913960400191505060405180910390fd5b600160008373ffffffffffffffffffffffffffffffffffffffff1673ffffffffffffffffffffffffffffffffffffffff16815260200190815260200160002060009054906101000a900473ffffffffffffffffffffffffffffffffffffffff1673ffffffffffffffffffffffffffffffffffffffff1663874fc5f86000836040518363ffffffff1660e01b815260040180831515815260200182815260200192505050600060405180830381600087803b15801561107657600080fd5b505af115801561108a573d6000803e3d6000fd5b505050508173ffffffffffffffffffffffffffffffffffffffff1663a9059cbb338473ffffffffffffffffffffffffffffffffffffffff166370a08231306040518263ffffffff1660e01b8152600401808273ffffffffffffffffffffffffffffffffffffffff16815260200191505060206040518083038186803b15801561111257600080fd5b505afa158015611126573d6000803e3d6000fd5b505050506040513d602081101561113c57600080fd5b81019080805190602001909291905050506040518363ffffffff1660e01b8152600401808373ffffffffffffffffffffffffffffffffffffffff16815260200182815260200192505050602060405180830381600087803b1580156111a057600080fd5b505af11580156111b4573d6000803e3d6000fd5b505050506040513d60208110156111ca57600080fd5b8101908080519060200190929190505050505050565b600081670de0b6b3a76400008402816111f557fe5b04905092915050565b604051806040016040528060029060208202803683378082019150509050509056fe45786368616e676520546f6b656e202d3e204574683a20416d6f756e74206d75737420626520626967676572207468616e203045786368616e676520546f6b656e202d3e20546f6b656e3a20416d6f756e74206d75737420626520626967676572207468616e203045786368616e676520457468202d3e20546f6b656e3a20416d6f756e74206d75737420626520626967676572207468616e2030a26469706673582212208a145b9d788c1fa25781e9133c88c064504643dfe3214b7bde3d66c9652d357264736f6c63430007000033",
  "immutableReferences": {},
  "source": "pragma solidity <0.8.0;\nimport \"./Token.sol\";\nimport \"./Reserve.sol\";\n\ncontract Exchange {\n    using SafeMath for uint256;\n    address _owner;\n    mapping (Token => Reserve) public reserves;\n    bool _tradeEnabled;\n\n    constructor() public {\n        _owner = msg.sender;\n        _tradeEnabled = true;\n    }\n\n    modifier onlyOwner {\n        require(msg.sender == _owner);\n        _;\n    }\n\n    function convertEthToTokenByRate(uint256 amount, uint256 buyRate) public pure returns (uint256) {\n        return amount * buyRate / 1e18;\n    }\n\n    // convert from token to eth by sell rate\n    // amount * ether / sell rate\n    function convertTokenToEthByRate(uint256 amount, uint256 sellRate) public pure returns (uint256) {\n        return amount * 1e18 / sellRate;\n    }\n\n    // add/remove reserve\n    function modifyReserveMap(address reserveAddr,bool isAdd) public  onlyOwner {\n        Reserve res = Reserve(reserveAddr);\n        if (isAdd) {\n            reserves[res._token()] = res;\n        } else {\n            delete reserves[res._token()];\n        }\n    }\n\n    // get Exchange Rate\n    function getExchangeRate(Token srcToken, Token destToken) public view returns (uint256[2] memory) {\n        // srcToken -> ETH -> destToken\n        // rate = buyrate dest / sellrate src\n        uint256 srcRate = reserves[destToken].getExchangeRate(true);\n        uint256 destRate = reserves[srcToken].getExchangeRate(false);\n\n        uint256[2] memory rates;\n        rates[0] = srcRate;\n        rates[1] = destRate;\n\n        return rates;\n        \n    }\n\n    function exchangeBetweenTokens(Token srcToken, Token destToken, uint256 srcAmount) public payable {\n        require(srcAmount > 0, \"Exchange Token -> Token: Amount must be bigger than 0\");\n        // require(msg.value == srcAmount, \"Exchange Token -> Token: msg.value != value\");\n        // dest amount  = src * buy rate A / 1e18\n        uint256 destAmount = convertEthToTokenByRate(srcAmount, reserves[srcToken].getExchangeRate(true));\n        // sell token a -> eth\n        // buy eth -> token b\n        reserves[srcToken].exchange(false, srcAmount);\n        reserves[destToken].exchange(true, destAmount);\n\n        destToken.transfer(msg.sender, destToken.balanceOf(address(this)));\n\n    }\n\n    function exchangeEthToToken(Token token, uint256 amount) public payable {\n        require(amount > 0, \"Exchange Eth -> Token: Amount must be bigger than 0\");\n        // require(msg.value == amount, \"Exchange Eth -> Token: msg.value != amount\");\n\n        reserves[token].exchange(true, amount);\n        token.transfer(msg.sender, token.balanceOf(address(this)));\n    }\n\n    function exchangeTokenToEth(Token token, uint256 amount) public payable {\n        require(amount > 0, \"Exchange Token -> Eth: Amount must be bigger than 0\");\n\n        reserves[token].exchange(false, amount);\n        token.transfer(msg.sender, token.balanceOf(address(this)));\n    }\n    \n}\n",
  "sourcePath": "/Users/nhanncv/Desktop/Summer2020/Blockchain/Capstone/contracts/Exchange.sol",
  "compiler": {
    "name": "solc",
    "version": "0.7.0+commit.9e61f92b.Emscripten.clang"
  },
  "schemaVersion": "3.2.0",
  "updatedAt": "2020-12-08T05:05:30.640Z",
  "devdoc": {
    "kind": "dev",
    "methods": {},
    "version": 1
  },
  "userdoc": {
    "kind": "user",
    "methods": {},
    "version": 1
  }
}