{
  "contractName": "Reserve",
  "abi": [
    {
      "inputs": [
        {
          "internalType": "uint256",
          "name": "buyRate",
          "type": "uint256"
        },
        {
          "internalType": "uint256",
          "name": "sellRate",
          "type": "uint256"
        },
        {
          "internalType": "uint256",
          "name": "totalSupply",
          "type": "uint256"
        },
        {
          "internalType": "string",
          "name": "name",
          "type": "string"
        },
        {
          "internalType": "string",
          "name": "symbol",
          "type": "string"
        },
        {
          "internalType": "uint32",
          "name": "decimals",
          "type": "uint32"
        }
      ],
      "stateMutability": "nonpayable",
      "type": "constructor"
    },
    {
      "anonymous": false,
      "inputs": [
        {
          "indexed": false,
          "internalType": "address",
          "name": "sender",
          "type": "address"
        },
        {
          "indexed": false,
          "internalType": "uint256",
          "name": "amount",
          "type": "uint256"
        }
      ],
      "name": "Exchanged",
      "type": "event"
    },
    {
      "inputs": [],
      "name": "_token",
      "outputs": [
        {
          "internalType": "contract Token",
          "name": "",
          "type": "address"
        }
      ],
      "stateMutability": "view",
      "type": "function",
      "constant": true
    },
    {
      "inputs": [
        {
          "internalType": "uint256",
          "name": "amount",
          "type": "uint256"
        },
        {
          "internalType": "uint256",
          "name": "buyRate",
          "type": "uint256"
        }
      ],
      "name": "convertEthToTokenByRate",
      "outputs": [
        {
          "internalType": "uint256",
          "name": "",
          "type": "uint256"
        }
      ],
      "stateMutability": "pure",
      "type": "function",
      "constant": true
    },
    {
      "inputs": [
        {
          "internalType": "uint256",
          "name": "amount",
          "type": "uint256"
        },
        {
          "internalType": "uint256",
          "name": "sellRate",
          "type": "uint256"
        }
      ],
      "name": "convertTokenToEthByRate",
      "outputs": [
        {
          "internalType": "uint256",
          "name": "",
          "type": "uint256"
        }
      ],
      "stateMutability": "pure",
      "type": "function",
      "constant": true
    },
    {
      "inputs": [
        {
          "internalType": "bool",
          "name": "isEth",
          "type": "bool"
        },
        {
          "internalType": "uint256",
          "name": "amount",
          "type": "uint256"
        }
      ],
      "name": "withdraw",
      "outputs": [],
      "stateMutability": "payable",
      "type": "function",
      "payable": true
    },
    {
      "inputs": [
        {
          "internalType": "bool",
          "name": "isBuying",
          "type": "bool"
        }
      ],
      "name": "getExchangeRate",
      "outputs": [
        {
          "internalType": "uint256",
          "name": "",
          "type": "uint256"
        }
      ],
      "stateMutability": "view",
      "type": "function",
      "constant": true
    },
    {
      "inputs": [],
      "name": "getTokenBalance",
      "outputs": [
        {
          "internalType": "uint256",
          "name": "",
          "type": "uint256"
        }
      ],
      "stateMutability": "view",
      "type": "function",
      "constant": true
    },
    {
      "inputs": [
        {
          "internalType": "bool",
          "name": "isBuying",
          "type": "bool"
        },
        {
          "internalType": "uint256",
          "name": "srcAmount",
          "type": "uint256"
        }
      ],
      "name": "exchange",
      "outputs": [],
      "stateMutability": "payable",
      "type": "function",
      "payable": true
    }
  ],
  "bytecode": "0x60806040523480156200001157600080fd5b5060405162001bb738038062001bb7833981810160405260c08110156200003757600080fd5b81019080805190602001909291908051906020019092919080519060200190929190805160405193929190846401000000008211156200007657600080fd5b838201915060208201858111156200008d57600080fd5b8251866001820283011164010000000082111715620000ab57600080fd5b8083526020830192505050908051906020019080838360005b83811015620000e1578082015181840152602081019050620000c4565b50505050905090810190601f1680156200010f5780820380516001836020036101000a031916815260200191505b50604052602001805160405193929190846401000000008211156200013357600080fd5b838201915060208201858111156200014a57600080fd5b82518660018202830111640100000000821117156200016857600080fd5b8083526020830192505050908051906020019080838360005b838110156200019e57808201518184015260208101905062000181565b50505050905090810190601f168015620001cc5780820380516001836020036101000a031916815260200191505b5060405260200180519060200190929190505050336000806101000a81548173ffffffffffffffffffffffffffffffffffffffff021916908373ffffffffffffffffffffffffffffffffffffffff160217905550838383836040516200023290620003ba565b8085815260200180602001806020018463ffffffff168152602001838103835286818151815260200191508051906020019080838360005b83811015620002875780820151818401526020810190506200026a565b50505050905090810190601f168015620002b55780820380516001836020036101000a031916815260200191505b50838103825285818151815260200191508051906020019080838360005b83811015620002f0578082015181840152602081019050620002d3565b50505050905090810190601f1680156200031e5780820380516001836020036101000a031916815260200191505b509650505050505050604051809103906000f08015801562000344573d6000803e3d6000fd5b50600160006101000a81548173ffffffffffffffffffffffffffffffffffffffff021916908373ffffffffffffffffffffffffffffffffffffffff16021790555085600281905550846003819055506001600460006101000a81548160ff021916908315150217905550505050505050620003c8565b610be58062000fd283390190565b610bfa80620003d86000396000f3fe6080604052600436106100705760003560e01c8063874fc5f81161004e578063874fc5f81461014a578063984c045014610184578063ecd0c0c3146101be578063ee302988146101ff57610070565b80630e587c40146100755780631f08d096146100c657806382b2e2571461011f575b600080fd5b34801561008157600080fd5b506100b06004803603602081101561009857600080fd5b81019080803515159060200190929190505050610258565b6040518082815260200191505060405180910390f35b3480156100d257600080fd5b50610109600480360360408110156100e957600080fd5b810190808035906020019092919080359060200190929190505050610272565b6040518082815260200191505060405180910390f35b34801561012b57600080fd5b50610134610290565b6040518082815260200191505060405180910390f35b6101826004803603604081101561016057600080fd5b810190808035151590602001909291908035906020019092919050505061035b565b005b6101bc6004803603604081101561019a57600080fd5b8101908080351515906020019092919080359060200190929190505050610905565b005b3480156101ca57600080fd5b506101d3610b80565b604051808273ffffffffffffffffffffffffffffffffffffffff16815260200191505060405180910390f35b34801561020b57600080fd5b506102426004803603604081101561022257600080fd5b810190808035906020019092919080359060200190929190505050610ba6565b6040518082815260200191505060405180910390f35b6000816102675760035461026b565b6002545b9050919050565b6000670de0b6b3a76400008284028161028757fe5b04905092915050565b6000600160009054906101000a900473ffffffffffffffffffffffffffffffffffffffff1673ffffffffffffffffffffffffffffffffffffffff166370a08231306040518263ffffffff1660e01b8152600401808273ffffffffffffffffffffffffffffffffffffffff16815260200191505060206040518083038186803b15801561031b57600080fd5b505afa15801561032f573d6000803e3d6000fd5b505050506040513d602081101561034557600080fd5b8101908080519060200190929190505050905090565b811561059357600061036b610290565b9050600061037b83600254610272565b9050600083116103f3576040517f08c379a00000000000000000000000000000000000000000000000000000000081526004018080602001828103825260178152602001807f4e65656420746f2073656e6420736f6d6520657468657200000000000000000081525060200191505060405180910390fd5b818110610468576040517f08c379a000000000000000000000000000000000000000000000000000000000815260040180806020018281038252601c8152602001807f4e6f7420656e6f75676820746f6b656e7320696e20726573657276650000000081525060200191505060405180910390fd5b600160009054906101000a900473ffffffffffffffffffffffffffffffffffffffff1673ffffffffffffffffffffffffffffffffffffffff1663a9059cbb33836040518363ffffffff1660e01b8152600401808373ffffffffffffffffffffffffffffffffffffffff16815260200182815260200192505050602060405180830381600087803b1580156104fb57600080fd5b505af115801561050f573d6000803e3d6000fd5b505050506040513d602081101561052557600080fd5b8101908080519060200190929190505050507f6ea412b125ed242bc34c304877264761547306c2429c03d7fd1b477aa61a3f5d3384604051808373ffffffffffffffffffffffffffffffffffffffff1681526020018281526020019250505060405180910390a15050610901565b60008111610609576040517f08c379a00000000000000000000000000000000000000000000000000000000081526004018080602001828103825260188152602001807f4e65656420746f2073656c6c20736f6d6520746f6b656e73000000000000000081525060200191505060405180910390fd5b600061061782600354610ba6565b90506000600160009054906101000a900473ffffffffffffffffffffffffffffffffffffffff1673ffffffffffffffffffffffffffffffffffffffff1663dd62ed3e33306040518363ffffffff1660e01b8152600401808373ffffffffffffffffffffffffffffffffffffffff1681526020018273ffffffffffffffffffffffffffffffffffffffff1681526020019250505060206040518083038186803b1580156106c257600080fd5b505afa1580156106d6573d6000803e3d6000fd5b505050506040513d60208110156106ec57600080fd5b8101908080519060200190929190505050905081811015610775576040517f08c379a00000000000000000000000000000000000000000000000000000000081526004018080602001828103825260198152602001807f436865636b2074686520746f6b656e20616c6c6f77616e63650000000000000081525060200191505060405180910390fd5b600160009054906101000a900473ffffffffffffffffffffffffffffffffffffffff1673ffffffffffffffffffffffffffffffffffffffff166323b872dd3330866040518463ffffffff1660e01b8152600401808473ffffffffffffffffffffffffffffffffffffffff1681526020018373ffffffffffffffffffffffffffffffffffffffff1681526020018281526020019350505050602060405180830381600087803b15801561082657600080fd5b505af115801561083a573d6000803e3d6000fd5b505050506040513d602081101561085057600080fd5b8101908080519060200190929190505050503373ffffffffffffffffffffffffffffffffffffffff166108fc839081150290604051600060405180830381858888f193505050501580156108a8573d6000803e3d6000fd5b507f6ea412b125ed242bc34c304877264761547306c2429c03d7fd1b477aa61a3f5d3384604051808373ffffffffffffffffffffffffffffffffffffffff1681526020018281526020019250505060405180910390a150505b5050565b60008054906101000a900473ffffffffffffffffffffffffffffffffffffffff1673ffffffffffffffffffffffffffffffffffffffff163373ffffffffffffffffffffffffffffffffffffffff161461095d57600080fd5b81156109bc574781111561097057600080fd5b3373ffffffffffffffffffffffffffffffffffffffff166108fc829081150290604051600060405180830381858888f193505050501580156109b6573d6000803e3d6000fd5b50610b7c565b600160009054906101000a900473ffffffffffffffffffffffffffffffffffffffff1673ffffffffffffffffffffffffffffffffffffffff166370a08231336040518263ffffffff1660e01b8152600401808273ffffffffffffffffffffffffffffffffffffffff16815260200191505060206040518083038186803b158015610a4557600080fd5b505afa158015610a59573d6000803e3d6000fd5b505050506040513d6020811015610a6f57600080fd5b8101908080519060200190929190505050811115610a8c57600080fd5b600160009054906101000a900473ffffffffffffffffffffffffffffffffffffffff1673ffffffffffffffffffffffffffffffffffffffff1663a9059cbb60008054906101000a900473ffffffffffffffffffffffffffffffffffffffff16836040518363ffffffff1660e01b8152600401808373ffffffffffffffffffffffffffffffffffffffff16815260200182815260200192505050602060405180830381600087803b158015610b3f57600080fd5b505af1158015610b53573d6000803e3d6000fd5b505050506040513d6020811015610b6957600080fd5b8101908080519060200190929190505050505b5050565b600160009054906101000a900473ffffffffffffffffffffffffffffffffffffffff1681565b600081670de0b6b3a7640000840281610bbb57fe5b0490509291505056fea2646970667358221220feb5d5378edf72ce6b921c2b720c23f0c9c733eb47dabb18bc865ce9937a860264736f6c63430007000033608060405234801561001057600080fd5b5060405162000be538038062000be58339818101604052608081101561003557600080fd5b81019080805190602001909291908051604051939291908464010000000082111561005f57600080fd5b8382019150602082018581111561007557600080fd5b825186600182028301116401000000008211171561009257600080fd5b8083526020830192505050908051906020019080838360005b838110156100c65780820151818401526020810190506100ab565b50505050905090810190601f1680156100f35780820380516001836020036101000a031916815260200191505b506040526020018051604051939291908464010000000082111561011657600080fd5b8382019150602082018581111561012c57600080fd5b825186600182028301116401000000008211171561014957600080fd5b8083526020830192505050908051906020019080838360005b8381101561017d578082015181840152602081019050610162565b50505050905090810190601f1680156101aa5780820380516001836020036101000a031916815260200191505b50604052602001805190602001909291905050508360028190555082600390805190602001906101db929190610260565b5081600490805190602001906101f2929190610260565b5080600560006101000a81548163ffffffff021916908363ffffffff160217905550836000803373ffffffffffffffffffffffffffffffffffffffff1673ffffffffffffffffffffffffffffffffffffffff16815260200190815260200160002081905550505050506102fd565b828054600181600116156101000203166002900490600052602060002090601f016020900481019282601f106102a157805160ff19168380011785556102cf565b828001600101855582156102cf579182015b828111156102ce5782518255916020019190600101906102b3565b5b5090506102dc91906102e0565b5090565b5b808211156102f95760008160009055506001016102e1565b5090565b6108d8806200030d6000396000f3fe608060405234801561001057600080fd5b50600436106100625760003560e01c8063095ea7b31461006757806318160ddd146100cb57806323b872dd146100e957806370a082311461016d578063a9059cbb146101c5578063dd62ed3e14610229575b600080fd5b6100b36004803603604081101561007d57600080fd5b81019080803573ffffffffffffffffffffffffffffffffffffffff169060200190929190803590602001909291905050506102a1565b60405180821515815260200191505060405180910390f35b6100d36102b8565b6040518082815260200191505060405180910390f35b610155600480360360608110156100ff57600080fd5b81019080803573ffffffffffffffffffffffffffffffffffffffff169060200190929190803573ffffffffffffffffffffffffffffffffffffffff169060200190929190803590602001909291905050506102c2565b60405180821515815260200191505060405180910390f35b6101af6004803603602081101561018357600080fd5b81019080803573ffffffffffffffffffffffffffffffffffffffff169060200190929190505050610373565b6040518082815260200191505060405180910390f35b610211600480360360408110156101db57600080fd5b81019080803573ffffffffffffffffffffffffffffffffffffffff169060200190929190803590602001909291905050506103bb565b60405180821515815260200191505060405180910390f35b61028b6004803603604081101561023f57600080fd5b81019080803573ffffffffffffffffffffffffffffffffffffffff169060200190929190803573ffffffffffffffffffffffffffffffffffffffff1690602001909291905050506103d2565b6040518082815260200191505060405180910390f35b60006102ae338484610459565b6001905092915050565b6000600254905090565b60006102cf848484610544565b610368843361036385600160008a73ffffffffffffffffffffffffffffffffffffffff1673ffffffffffffffffffffffffffffffffffffffff16815260200190815260200160002060003373ffffffffffffffffffffffffffffffffffffffff1673ffffffffffffffffffffffffffffffffffffffff1681526020019081526020016000205461076a90919063ffffffff16565b610459565b600190509392505050565b60008060008373ffffffffffffffffffffffffffffffffffffffff1673ffffffffffffffffffffffffffffffffffffffff168152602001908152602001600020549050919050565b60006103c8338484610544565b6001905092915050565b6000600160008473ffffffffffffffffffffffffffffffffffffffff1673ffffffffffffffffffffffffffffffffffffffff16815260200190815260200160002060008373ffffffffffffffffffffffffffffffffffffffff1673ffffffffffffffffffffffffffffffffffffffff16815260200190815260200160002054905092915050565b80600160008573ffffffffffffffffffffffffffffffffffffffff1673ffffffffffffffffffffffffffffffffffffffff16815260200190815260200160002060008473ffffffffffffffffffffffffffffffffffffffff1673ffffffffffffffffffffffffffffffffffffffff168152602001908152602001600020819055508173ffffffffffffffffffffffffffffffffffffffff168373ffffffffffffffffffffffffffffffffffffffff167f8c5be1e5ebec7d5bd14f71427d1e84f3dd0314c0f7b2291e5b200ac8c7c3b925836040518082815260200191505060405180910390a3505050565b6000808473ffffffffffffffffffffffffffffffffffffffff1673ffffffffffffffffffffffffffffffffffffffff1681526020019081526020016000205481106105da576040517f08c379a000000000000000000000000000000000000000000000000000000000815260040180806020018281038252602881526020018061087b6028913960400191505060405180910390fd5b61062b816000808673ffffffffffffffffffffffffffffffffffffffff1673ffffffffffffffffffffffffffffffffffffffff1681526020019081526020016000205461076a90919063ffffffff16565b6000808573ffffffffffffffffffffffffffffffffffffffff1673ffffffffffffffffffffffffffffffffffffffff168152602001908152602001600020819055506106be816000808573ffffffffffffffffffffffffffffffffffffffff1673ffffffffffffffffffffffffffffffffffffffff168152602001908152602001600020546107f290919063ffffffff16565b6000808473ffffffffffffffffffffffffffffffffffffffff1673ffffffffffffffffffffffffffffffffffffffff168152602001908152602001600020819055508173ffffffffffffffffffffffffffffffffffffffff168373ffffffffffffffffffffffffffffffffffffffff167fddf252ad1be2c89b69c2b068fc378daa952ba7f163c4a11628f55a4df523b3ef836040518082815260200191505060405180910390a3505050565b6000808284039050838311156107e8576040517f08c379a000000000000000000000000000000000000000000000000000000000815260040180806020018281038252601b8152602001807f536166654d6174683a205375627472616374206f766572666c6f77000000000081525060200191505060405180910390fd5b8091505092915050565b600080828401905083811015610870576040517f08c379a000000000000000000000000000000000000000000000000000000000815260040180806020018281038252601b8152602001807f536166654d6174683a204164646974696f6e206f766572666c6f77000000000081525060200191505060405180910390fd5b809150509291505056fe4572726f723a2062616c616e636573206973206e6f7420656e6f75676820746f206f706572617465a26469706673582212200e0cedc6784db0d8d56881e5dbb6c025c4c467ddc46485c3220e842497959fa664736f6c63430007000033",
  "immutableReferences": {},
  "source": "pragma solidity <0.8.0;\nimport \"./Token.sol\";\n\ncontract Reserve {\n    address _owner;\n    Token public _token;\n    uint256 _buyRate;\n    uint256 _sellRate;\n    bool _tradeEnabled;\n\n\n    event Exchanged(address sender, uint256 amount);\n\n    constructor(\n        uint256 buyRate,\n        uint256 sellRate,\n        uint256 totalSupply,\n        string memory name,\n        string memory symbol,\n        uint32 decimals\n    ) public {\n        _owner = msg.sender;\n        _token = new Token(totalSupply, name, symbol, decimals);\n        _buyRate = buyRate;\n        _sellRate = sellRate;\n        _tradeEnabled = true;\n    }\n\n    modifier onlyOwner {\n        require(msg.sender == _owner);\n        _;\n    }\n\n    function convertEthToTokenByRate(uint256 amount, uint256 buyRate) public pure returns (uint256) {\n        return amount * buyRate / 1e18;\n\n    }\n\n    // convert from token to eth by sell rate\n    // amount * ether / sell rate\n    function convertTokenToEthByRate(uint256 amount, uint256 sellRate) public pure returns (uint256) {\n        return amount * 1e18 / sellRate;\n    }\n\n    // withdraw\n    function withdraw(bool isEth, uint256 amount) public payable onlyOwner {\n        if (isEth) {\n            require(amount <= address(this).balance);\n            msg.sender.transfer(amount);\n        } else {\n            require(amount <= _token.balanceOf(msg.sender));\n            _token.transfer(_owner, amount);\n        }\n    }\n\n    // get exchange rate\n    function getExchangeRate(bool isBuying) public view returns (uint) {\n        return isBuying ? _buyRate : _sellRate;\n    }\n\n    // get balance of owner\n    function getTokenBalance() public view returns (uint256) {\n\n        return _token.balanceOf(address(this));\n    }\n\n\n    function exchange(bool isBuying, uint256 srcAmount) public payable {\n        if (isBuying) {\n            uint256 ownerBalance = getTokenBalance();\n            uint256 actualAmount = convertEthToTokenByRate(srcAmount, _buyRate);\n            require(srcAmount > 0, \"Need to send some ether\");\n            require(actualAmount < ownerBalance, \"Not enough tokens in reserve\");\n            _token.transfer(msg.sender, actualAmount);\n\n            emit Exchanged(msg.sender, srcAmount);\n        } else {\n            require (srcAmount > 0, \"Need to sell some tokens\");\n            uint256 actualAmount = convertTokenToEthByRate(srcAmount, _sellRate);\n            uint256 allowance = _token.allowance(msg.sender, address(this));\n            require(allowance >= actualAmount, \"Check the token allowance\");\n            _token.transferFrom(msg.sender, address(this), srcAmount);\n            msg.sender.transfer(actualAmount);\n\n            emit Exchanged(msg.sender, srcAmount);\n        }\n    }\n}\n",
  "sourcePath": "/Users/nhanncv/Desktop/Summer2020/Blockchain/Capstone/contracts/Reserve.sol",
  "compiler": {
    "name": "solc",
    "version": "0.7.0+commit.9e61f92b.Emscripten.clang"
  },
  "schemaVersion": "3.2.0",
  "updatedAt": "2020-12-05T06:58:15.234Z",
  "networkType": "ethereum",
  "devdoc": {
    "kind": "dev",
    "methods": {},
    "version": 1
  },
  "userdoc": {
    "kind": "user",
    "methods": {},
    "version": 1
  }
}