{
  "contractName": "Reserve",
  "abi": [
    {
      "inputs": [
        {
          "internalType": "uint256",
          "name": "buyRate",
          "type": "uint256"
        },
        {
          "internalType": "uint256",
          "name": "sellRate",
          "type": "uint256"
        },
        {
          "internalType": "contract Token",
          "name": "token",
          "type": "address"
        }
      ],
      "stateMutability": "nonpayable",
      "type": "constructor"
    },
    {
      "anonymous": false,
      "inputs": [
        {
          "indexed": false,
          "internalType": "address",
          "name": "sender",
          "type": "address"
        },
        {
          "indexed": false,
          "internalType": "uint256",
          "name": "amount",
          "type": "uint256"
        }
      ],
      "name": "Exchanged",
      "type": "event"
    },
    {
      "inputs": [],
      "name": "_token",
      "outputs": [
        {
          "internalType": "contract Token",
          "name": "",
          "type": "address"
        }
      ],
      "stateMutability": "view",
      "type": "function",
      "constant": true
    },
    {
      "inputs": [
        {
          "internalType": "uint256",
          "name": "amount",
          "type": "uint256"
        },
        {
          "internalType": "uint256",
          "name": "buyRate",
          "type": "uint256"
        }
      ],
      "name": "convertEthToTokenByRate",
      "outputs": [
        {
          "internalType": "uint256",
          "name": "",
          "type": "uint256"
        }
      ],
      "stateMutability": "view",
      "type": "function",
      "constant": true
    },
    {
      "inputs": [
        {
          "internalType": "uint256",
          "name": "amount",
          "type": "uint256"
        },
        {
          "internalType": "uint256",
          "name": "sellRate",
          "type": "uint256"
        }
      ],
      "name": "convertTokenToEthByRate",
      "outputs": [
        {
          "internalType": "uint256",
          "name": "",
          "type": "uint256"
        }
      ],
      "stateMutability": "view",
      "type": "function",
      "constant": true
    },
    {
      "inputs": [
        {
          "internalType": "bool",
          "name": "isEth",
          "type": "bool"
        },
        {
          "internalType": "uint256",
          "name": "amount",
          "type": "uint256"
        }
      ],
      "name": "withdraw",
      "outputs": [],
      "stateMutability": "payable",
      "type": "function",
      "payable": true
    },
    {
      "inputs": [
        {
          "internalType": "bool",
          "name": "isBuying",
          "type": "bool"
        }
      ],
      "name": "getExchangeRate",
      "outputs": [
        {
          "internalType": "uint256",
          "name": "",
          "type": "uint256"
        }
      ],
      "stateMutability": "view",
      "type": "function",
      "constant": true
    },
    {
      "inputs": [],
      "name": "getTokenBalance",
      "outputs": [
        {
          "internalType": "uint256",
          "name": "",
          "type": "uint256"
        }
      ],
      "stateMutability": "view",
      "type": "function",
      "constant": true
    },
    {
      "inputs": [
        {
          "internalType": "bool",
          "name": "isBuying",
          "type": "bool"
        },
        {
          "internalType": "uint256",
          "name": "srcAmount",
          "type": "uint256"
        }
      ],
      "name": "exchange",
      "outputs": [],
      "stateMutability": "payable",
      "type": "function",
      "payable": true
    }
  ],
  "bytecode": "0x608060405234801561001057600080fd5b50604051610d0e380380610d0e8339818101604052606081101561003357600080fd5b81019080805190602001909291908051906020019092919080519060200190929190505050336000806101000a81548173ffffffffffffffffffffffffffffffffffffffff021916908373ffffffffffffffffffffffffffffffffffffffff16021790555080600160006101000a81548173ffffffffffffffffffffffffffffffffffffffff021916908373ffffffffffffffffffffffffffffffffffffffff16021790555082600281905550816003819055506001600460006101000a81548160ff021916908315150217905550505050610bfa806101146000396000f3fe6080604052600436106100705760003560e01c8063874fc5f81161004e578063874fc5f81461014a578063984c045014610184578063ecd0c0c3146101be578063ee302988146101ff57610070565b80630e587c40146100755780631f08d096146100c657806382b2e2571461011f575b600080fd5b34801561008157600080fd5b506100b06004803603602081101561009857600080fd5b81019080803515159060200190929190505050610258565b6040518082815260200191505060405180910390f35b3480156100d257600080fd5b50610109600480360360408110156100e957600080fd5b810190808035906020019092919080359060200190929190505050610272565b6040518082815260200191505060405180910390f35b34801561012b57600080fd5b50610134610290565b6040518082815260200191505060405180910390f35b6101826004803603604081101561016057600080fd5b810190808035151590602001909291908035906020019092919050505061035b565b005b6101bc6004803603604081101561019a57600080fd5b8101908080351515906020019092919080359060200190929190505050610905565b005b3480156101ca57600080fd5b506101d3610b80565b604051808273ffffffffffffffffffffffffffffffffffffffff16815260200191505060405180910390f35b34801561020b57600080fd5b506102426004803603604081101561022257600080fd5b810190808035906020019092919080359060200190929190505050610ba6565b6040518082815260200191505060405180910390f35b6000816102675760035461026b565b6002545b9050919050565b6000670de0b6b3a76400008284028161028757fe5b04905092915050565b6000600160009054906101000a900473ffffffffffffffffffffffffffffffffffffffff1673ffffffffffffffffffffffffffffffffffffffff166370a08231306040518263ffffffff1660e01b8152600401808273ffffffffffffffffffffffffffffffffffffffff16815260200191505060206040518083038186803b15801561031b57600080fd5b505afa15801561032f573d6000803e3d6000fd5b505050506040513d602081101561034557600080fd5b8101908080519060200190929190505050905090565b811561059357600061036b610290565b9050600061037b83600254610272565b9050600083116103f3576040517f08c379a00000000000000000000000000000000000000000000000000000000081526004018080602001828103825260178152602001807f4e65656420746f2073656e6420736f6d6520657468657200000000000000000081525060200191505060405180910390fd5b818110610468576040517f08c379a000000000000000000000000000000000000000000000000000000000815260040180806020018281038252601c8152602001807f4e6f7420656e6f75676820746f6b656e7320696e20726573657276650000000081525060200191505060405180910390fd5b600160009054906101000a900473ffffffffffffffffffffffffffffffffffffffff1673ffffffffffffffffffffffffffffffffffffffff1663a9059cbb33836040518363ffffffff1660e01b8152600401808373ffffffffffffffffffffffffffffffffffffffff16815260200182815260200192505050602060405180830381600087803b1580156104fb57600080fd5b505af115801561050f573d6000803e3d6000fd5b505050506040513d602081101561052557600080fd5b8101908080519060200190929190505050507f6ea412b125ed242bc34c304877264761547306c2429c03d7fd1b477aa61a3f5d3384604051808373ffffffffffffffffffffffffffffffffffffffff1681526020018281526020019250505060405180910390a15050610901565b60008111610609576040517f08c379a00000000000000000000000000000000000000000000000000000000081526004018080602001828103825260188152602001807f4e65656420746f2073656c6c20736f6d6520746f6b656e73000000000000000081525060200191505060405180910390fd5b600061061782600354610ba6565b90506000600160009054906101000a900473ffffffffffffffffffffffffffffffffffffffff1673ffffffffffffffffffffffffffffffffffffffff1663dd62ed3e33306040518363ffffffff1660e01b8152600401808373ffffffffffffffffffffffffffffffffffffffff1681526020018273ffffffffffffffffffffffffffffffffffffffff1681526020019250505060206040518083038186803b1580156106c257600080fd5b505afa1580156106d6573d6000803e3d6000fd5b505050506040513d60208110156106ec57600080fd5b8101908080519060200190929190505050905081811015610775576040517f08c379a00000000000000000000000000000000000000000000000000000000081526004018080602001828103825260198152602001807f436865636b2074686520746f6b656e20616c6c6f77616e63650000000000000081525060200191505060405180910390fd5b600160009054906101000a900473ffffffffffffffffffffffffffffffffffffffff1673ffffffffffffffffffffffffffffffffffffffff166323b872dd3330866040518463ffffffff1660e01b8152600401808473ffffffffffffffffffffffffffffffffffffffff1681526020018373ffffffffffffffffffffffffffffffffffffffff1681526020018281526020019350505050602060405180830381600087803b15801561082657600080fd5b505af115801561083a573d6000803e3d6000fd5b505050506040513d602081101561085057600080fd5b8101908080519060200190929190505050503373ffffffffffffffffffffffffffffffffffffffff166108fc839081150290604051600060405180830381858888f193505050501580156108a8573d6000803e3d6000fd5b507f6ea412b125ed242bc34c304877264761547306c2429c03d7fd1b477aa61a3f5d3384604051808373ffffffffffffffffffffffffffffffffffffffff1681526020018281526020019250505060405180910390a150505b5050565b60008054906101000a900473ffffffffffffffffffffffffffffffffffffffff1673ffffffffffffffffffffffffffffffffffffffff163373ffffffffffffffffffffffffffffffffffffffff161461095d57600080fd5b81156109bc574781111561097057600080fd5b3373ffffffffffffffffffffffffffffffffffffffff166108fc829081150290604051600060405180830381858888f193505050501580156109b6573d6000803e3d6000fd5b50610b7c565b600160009054906101000a900473ffffffffffffffffffffffffffffffffffffffff1673ffffffffffffffffffffffffffffffffffffffff166370a08231336040518263ffffffff1660e01b8152600401808273ffffffffffffffffffffffffffffffffffffffff16815260200191505060206040518083038186803b158015610a4557600080fd5b505afa158015610a59573d6000803e3d6000fd5b505050506040513d6020811015610a6f57600080fd5b8101908080519060200190929190505050811115610a8c57600080fd5b600160009054906101000a900473ffffffffffffffffffffffffffffffffffffffff1673ffffffffffffffffffffffffffffffffffffffff1663a9059cbb60008054906101000a900473ffffffffffffffffffffffffffffffffffffffff16836040518363ffffffff1660e01b8152600401808373ffffffffffffffffffffffffffffffffffffffff16815260200182815260200192505050602060405180830381600087803b158015610b3f57600080fd5b505af1158015610b53573d6000803e3d6000fd5b505050506040513d6020811015610b6957600080fd5b8101908080519060200190929190505050505b5050565b600160009054906101000a900473ffffffffffffffffffffffffffffffffffffffff1681565b600081670de0b6b3a7640000840281610bbb57fe5b0490509291505056fea2646970667358221220ef4ec5447d5238a7eb775df475b5f74a9220f131641d0efa18930a908502199e64736f6c63430007000033",
  "immutableReferences": {},
  "source": "pragma solidity <0.8.0;\nimport \"./Token.sol\";\n\ncontract Reserve {\n    address _owner;\n    Token public _token;\n    uint256 _buyRate;\n    uint256 _sellRate;\n    bool _tradeEnabled;\n\n    event Exchanged(address sender, uint256 amount);\n\n    constructor(\n        uint256 buyRate,\n        uint256 sellRate,\n        Token token\n    ) public {\n        _owner = msg.sender;\n        _token = token;\n        _buyRate = buyRate;\n        _sellRate = sellRate;\n        _tradeEnabled = true;\n    }\n\n    modifier onlyOwner {\n        require(msg.sender == _owner);\n        _;\n    }\n\n    function convertEthToTokenByRate(uint256 amount, uint256 buyRate) public view returns (uint256) {\n        return amount * buyRate / 1e18;\n    }\n\n    // convert from token to eth by sell rate\n    // amount * ether / sell rate\n    function convertTokenToEthByRate(uint256 amount, uint256 sellRate) public view returns (uint256) {\n        return amount * 1e18 / sellRate;\n    }\n\n    // withdraw\n    function withdraw(bool isEth, uint256 amount) public payable onlyOwner {\n        if (isEth) {\n            require(amount <= address(this).balance);\n            msg.sender.transfer(amount);\n        } else {\n            require(amount <= _token.balanceOf(msg.sender));\n            _token.transfer(_owner, amount);\n        }\n    }\n\n    // get exchange rate\n    function getExchangeRate(bool isBuying) public view returns (uint) {\n        return isBuying ? _buyRate : _sellRate;\n    }\n\n    // get balance of owner\n    function getTokenBalance() public view returns (uint256) {\n\n        return _token.balanceOf(address(this));\n    }\n\n\n    function exchange(bool isBuying, uint256 srcAmount) public payable {\n        if (isBuying) {\n            uint256 ownerBalance = getTokenBalance();\n            uint256 actualAmount = convertEthToTokenByRate(srcAmount, _buyRate);\n            require(srcAmount > 0, \"Need to send some ether\");\n            require(actualAmount < ownerBalance, \"Not enough tokens in reserve\");\n            _token.transfer(msg.sender, actualAmount);\n\n            emit Exchanged(msg.sender, srcAmount);\n        } else {\n            require (srcAmount > 0, \"Need to sell some tokens\");\n            uint256 actualAmount = convertTokenToEthByRate(srcAmount, _sellRate);\n            uint256 allowance = _token.allowance(msg.sender, address(this));\n            require(allowance >= actualAmount, \"Check the token allowance\");\n            _token.transferFrom(msg.sender, address(this), srcAmount);\n            msg.sender.transfer(actualAmount);\n\n            emit Exchanged(msg.sender, srcAmount);\n        }\n    }\n}\n",
  "sourcePath": "/Users/nhanncv/Desktop/Summer2020/Blockchain/Capstone/contracts/Reserve.sol",
  "compiler": {
    "name": "solc",
    "version": "0.7.0+commit.9e61f92b.Emscripten.clang"
  },
  "schemaVersion": "3.2.0",
  "updatedAt": "2020-12-01T03:52:34.132Z",
  "networkType": "ethereum",
  "devdoc": {
    "kind": "dev",
    "methods": {},
    "version": 1
  },
  "userdoc": {
    "kind": "user",
    "methods": {},
    "version": 1
  }
}